:020000040800F2
:10000000801700209901000879350008C12A0008EE
:100010008D340008B50C0008313B000800000000DA
:1000200000000000000000000000000001010008C6
:10003000B70C00080000000045010008BD370008AB
:10004000B3010008B3010008B3010008B3010008C0
:10005000B3010008B3010008B3010008B3010008B0
:10006000B3010008B3010008B3010008B3010008A0
:10007000B3010008B3010008B3010008B301000890
:10008000B3010008B3010008B3010008B301000880
:10009000B3010008B3010008B3010008B301000870
:1000A000B301000865380008B3010008B301000877
:1000B000B301000871380008B3010008B30100085B
:1000C000B3010008B3010008B3010008B301000840
:1000D000B3010008B3010008ED3A0008B3010008BD
:1000E000B3010008B3010008B3010008DFF80CD029
:1000F00000F0B4FB004800472942000880170020A8
:10010000224B19680868B0E8F00F80F30988BFF344
:100110006F8F4FF0000080F311884EF00D0E704786
:100120000000000006480068006880F3088862B696
:1001300061B6BFF34F8FBFF36F8F00DF00BF00BF0B
:1001400008ED00E0EFF30980BFF36F8F0F4B1A68E3
:1001500020E9F00F106008B54FF0500080F31188CF
:10016000BFF34F8FBFF36F8F04F09AFC4FF0000086
:1001700080F31188BDE8084019680868B0E8F00FFE
:1001800080F30988BFF36F8F704700BFE400002041
:10019000EFF3058070470000064880470648004797
:1001A000FEE7FEE7FEE7FEE7FEE7FEE7FEE7FEE727
:1001B000FEE7FEE761380008ED000008202A04DBB6
:1001C000203A21FA02F00021704721FA02F3D040D0
:1001D000C2F12002914008431946704740EA0103EA
:1001E0009B0703D009E008C9121F08C0042AFAD2ED
:1001F00003E011F8013B00F8013B521EF9D27047B1
:10020000D2B201E000F8012B491EFBD27047002258
:10021000F6E710B513460A4604461946FFF7F0FF05
:10022000204610BD80EA010210B502F000434000F4
:1002300022D04A001FD0010E01EB1261C0F356001C
:10024000C2F3560240F4000042F40002A0FB022078
:1002500000047F39140400D0401C50EA124001D43D
:100260004000491EC2B20C0604EBD010401C4008EE
:10027000802A02D003E0002010BD20F001000029F8
:1002800000DA0020184310BD30B480EA010202F009
:10029000004530F0004221F0004013D090B1C30D72
:1002A000D40DC2F31601C0F31600E41A41F40001A4
:1002B00040F400027D34914201D3641C00E0490007
:1002C000002C02DA30BC002070474FF400000023FD
:1002D000914201D3891A034340084FEA4101F7D103
:1002E00051B1914202D14FF0004105E002D24FF0EE
:1002F000010101E06FF0010103EBC450284430BC60
:1003000000F018BA2DE9FE4F804681EA0300C00FC5
:100310000C46009021F0004123F00045B8EB0200AC
:10032000A94105D24046214690461C460B4602464E
:1003300023F00040104347D0270DC7F30A00C3F352
:100340000A510290401A019040286BDAC3F313005F
:1003500040F4801B0098924620B10023D2EB030AA0
:1003600063EB0B0B01985946C0F14002504600F078
:10037000C0F906460D4650465946019A00F0C8F9A4
:1003800010EB08006141002487EA115284EAE77308
:100390001A4340D0009A62B3019A012A4FEA0752E9
:1003A00015DC001B61EB02014FF0004202EA07522C
:1003B000CDE90042001C41F5801132462B4600F089
:1003C000FFF903B0BDE8F08F40462146F9E7001B76
:1003D00061EB0201001C41F5801300185B412018FD
:1003E000A2F5001747EB030140EAD570B6196D413D
:1003F00011E06D084FEA360645EAC0754FEA07522C
:10040000001B61EB0201001C41F5801149084FEA15
:1004100030000019514132462B4603B0BDE8F04F81
:1004200000F0BFB90098012240000023D0EB020287
:1004300063EBE073009821464FEAE074B8EB0000EC
:1004400061EB0401E9E783F000435BE781F00041E1
:1004500058E72DE9FE4F81EA030404F0004421F03F
:10046000004100944FF0000B23F0004350EA0104D8
:100470005ED052EA03045BD0C3F30A54C1F30A55B9
:100480002C44A4F2F3340194A0FB0254C1F31301F1
:1004900041F48011C3F3130343F4801301FB0244BE
:1004A00000FB034E840A970A44EA815447EA8357C3
:1004B000A4FB076802958D0A05FB07854FEA932C7C
:1004C00004FB0C542705029D4FEA065847EA1637ED
:1004D000B5EB08056EEB070C870E920E47EA811705
:1004E00042EA8312A7FB0201B6EB0B0164EB0004A6
:1004F0002B0D43EA0C335E1844EB1C50DA46514690
:10050000E7FB0201C5F313044FEA0B3343EA14532C
:100510004FEA0432019C43EA0603A4F10C0402945E
:10052000009CCDE900B400F04BF903B0BDE8F08FBA
:1005300000200146F9E72DE9F04D81EA030404F0BB
:10054000004B21F0004514464FF0000A23F0004113
:1005500050EA050220D054EA01021DD0C5F30A5723
:100560000246C5F31303C1F31300C1F30A5640F466
:10057000801543F48013A7EB0608101BD64608F23B
:10058000FD3873EB050002D308F1010801E0921871
:100590005B41B8F1000F03DA00200146BDE8F08DA1
:1005A00000204FF48011064684460EE0171B73EBC3
:1005B000050705D3121B63EB050306434CEA010C48
:1005C00049084FEA300092185B4150EA0107EDD12B
:1005D00052EA030012D082EA040083EA05010843CC
:1005E00005D0101BAB4106D20122002306E00022F9
:1005F0004FF0004302E06FF0010253101AEB0600C7
:100600004CEB085110EB0A0041EB0B01BDE8F04D3B
:1006100000F0C7B870B521F0004303430CD0C1F31C
:100620000A550024D5EB040564EB0403D617AD1A74
:10063000B34102DB0020014670BD201841EB02519E
:1006400070BD96230022114600F07DB80EB540F231
:10065000334102910021CDE900110A460B4600F01A
:10066000AFF803B000BD20F00040C10DC0F316008C
:1006700040F400007F2901DA00207047962903DC4E
:10068000C1F19601C840704796398840704701F023
:10069000004330B421F0004150EA010206D00A0DB7
:1006A000A2F56072C1F31301002A02DC30BC002005
:1006B0007047440F44EAC104C100E01830BC00EBAD
:1006C000C25000F037B830B50B460146002020225A
:1006D000012409E021FA02F59D4205D303FA02F54F
:1006E000491B04FA02F52844151EA2F10102F1DCAF
:1006F00030BD202A04DB203A00FA02F100207047C6
:100700009140C2F1200320FA03F31943904070474F
:10071000202A06DBCB17203A41FA02F043EAE073C5
:1007200006E041FA02F3D040C2F1200291400843B2
:10073000194670470029A8BF7047401C490008BFF0
:1007400020F00100704710B4B0FA80FC00FA0CF001
:1007500050EA010404BF10BC704749B1CCF1200439
:1007600021FA04F411FA0CF118BF012121430843C6
:10077000A3EB0C01CB1D4FEA00614FEA102042BFF2
:10078000002010BC704700EBC35010440029A4BFE8
:1007900010BC7047401C490008BF20F0010010BC8D
:1007A000704710B5141E73F1000408DA401C41F1C3
:1007B000000192185B411A4301D120F0010010BDE5
:1007C0002DE9F04D92469B4611B1B1FA81F202E05B
:1007D000B0FA80F220329046FFF78BFF04460F46B6
:1007E00040EA0A0041EA0B0153465A46084313D037
:1007F000114653EA010019D0C8F140025046FFF7F4
:10080000DDFC05460E46504659464246FFF771FF4D
:10081000084305D0012004E020463946BDE8F08DAC
:100820000020054346EAE0762C4337430A986305E7
:10083000E40AA0EB08000022FD0A44EA47540A300B
:1008400002D500200146E9E7010510196941DDE9FB
:10085000084500196941BDE8F04DA2E7064C074D77
:1008600006E0E06840F0010394E807009847103480
:10087000AC42F6D3FFF73EFC7C5A00089C5A0008B5
:1008800070B58C1810F8015B15F0070301D110F852
:10089000013B2A1106D110F8012B03E010F8016B7F
:1008A00001F8016B5B1EF9D12B0705D40023521E02
:1008B0000DD401F8013BFAE710F8013BCB1A921C6A
:1008C00003E013F8015B01F8015B521EF9D5A14268
:1008D000D8D3002070BD000070B504460068816860
:1008E000C943C90717D1816821F00101816000F077
:1008F00093FD05460AE000BF00F08EFD401B022874
:1009000004D920688068C043C00706D0206880688A
:10091000C043C007F0D0002070BDA06A40F01000B6
:10092000A062E06A40F00100E062012070BD0000BA
:10093000F8B500260446009600688168C943C907D7
:100940002DD0816841F00101816016481649006888
:10095000B0FBF1F000E0401E00900028FBD100F059
:100960005BFD054616E000BF00F056FD401B022867
:1009700010D920688068C043C0070BD0A06A40F03F
:100980001000A062E06A40F00100E06284F8246098
:100990000120F8BD20688068C043C007E4D1002072
:1009A000F8BD0000E000002040420F002DE9FE4F9E
:1009B000012607270096002569463C48CDE90167D6
:1009C00000F0E8F908B100F077F90024374800F0AA
:1009D000BBFB6421354800F019FB18B9334800F01F
:1009E00057FA0544641CE4B20A2CEFD30A24B5FB81
:1009F000F4F0FFF72BFEDFF8B8A04FF066394A4657
:100A00005346FFF726FDDFF8ACB000225B46FFF748
:100A100092FDFFF73CFE2849FFF704FCFFF723FE99
:100A2000DFF8988000256946A8F80C0010208DE8B2
:100A3000C1001E4800F0AEF908B100F03DF90026F3
:100A40004FF47A77194800F07FFB3946174800F0D9
:100A5000DDFA18B9154800F01BFA0544761CF6B209
:100A60000A2EEFD3B5FBF4F0FFF7F0FD4A465346EC
:100A7000FFF7EFFC00225B46FFF75DFD104A114BCC
:100A8000FFF7E4FC104A114BFFF755FD0022104B15
:100A9000FFF738FCFFF7FBFD0749FFF7C3FBFFF744
:100AA000E2FDA8F80E00BDE8FE8F0000A4030020C0
:100AB00066660A4000FEAF400000C842680600209B
:100AC000E17A14AE47E1F63F22FDF675E09C713FF6
:100AD000000039401CB5BE208DF8040008208DF8B8
:100AE000050000208DF806004FF6FF7000900323EC
:100AF00001AA7021014800F081FE1CBDD403002032
:100B00001CB5282000F080FBBE208DF804000820D2
:100B10008DF8050000208DF806004FF6FF7000905C
:100B2000032301AA7021054800F068FE00F0A2F836
:100B3000000701D4FFF7CEFF1CBD0000D403002046
:100B400070B500F019F80A4C084E31466068FFF79E
:100B500069FBFFF788FD074D314668802068FFF785
:100B600061FBFFF780FDA88070BD00000000C84257
:100B7000000000206806002070B586B000208DF8C7
:100B800000008DF800008DF800008DF800008DF851
:100B900000008DF80000AC218DF80C1033218DF889
:100BA0000D1004468DF80E004FF6FF75032303AABF
:100BB00070212B48009500F021FE502000F024FB0E
:100BC00007E0012000F020FB2046641CA4B264284A
:100BD00003D200F04FF80006F3D4062301AA7021D7
:100BE0001F48009500F0E2FC9DF805009DF80610F6
:100BF0009DF8074041EA002144EA01200009FFF77F
:100C000025FD0022174BFFF724FC6FF00906324642
:100C1000FFF700FD3246FFF7FDFCFFF738FD124DF0
:100C200028609DF808109DF8090041EA042140EA77
:100C30000120C0F31300FFF709FD00220B4BFFF763
:100C400008FC3246FFF7E6FC3246FFF7E3FC0022E1
:100C5000074BFFF7F8FBFFF71AFD686006B070BDA1
:100C6000D40300200000594000000020000069402B
:100C7000000049401CB54FF6FF700090012301AA07
:100C80007021034800F092FC9DF804001CBD000098
:100C9000D4030020064B4FF40051012805D0002852
:100CA00005D10022184600F0B1BB0122FAE77047D7
:100CB00000100140FEE7704772B6FEE7F8B5002568
:100CC0000446009590F8240001280BD0012084F8F8
:100CD00024002046FFF700FE2046FFF729FE06000D
:100CE00002D050E00220F8BDA06A20F4885040F005
:100CF0000200A062022001F0CFF825490968B1FB8B
:100D0000F0F0400000E0401E00900028FBD1206879
:100D1000816841F00801816000F07EFB074608E031
:100D200000F07AFBC01B0A2803D9206880680007FE
:100D300015D4206880680007F2D42068816841F0EB
:100D40000401816000F068FB074612E000F064FBDC
:100D5000C01B0A280DD920688068400709D5A06A01
:100D600020F0020040F01000A06284F8245001201E
:100D7000F8BD206880684007E8D4A06A20F002002F
:100D800040F00100A06284F824503046F8BD000015
:100D9000E0000020F8B50024009490F824202546B7
:100DA000012A12D0012280F824204A681F23072A32
:100DB0000DD20668776B521E02EB820293409F436E
:100DC0000B6893401F43776319E00220F8BD066863
:100DD0000D2A0AD2376BD21F02EB820293409F4347
:100DE0000B6893401F43376309E0F76A0D3A02EB43
:100DF000820293409F430B6893401F43F7620A6847
:100E0000072306680A2A0AD3F7680A3A02EB420265
:100E100093409F438B6893401F43F76008E0376916
:100E200002EB420293409F438B6893401F4337611C
:100E30000A68102A01D0112A20D1124B02689A4266
:100E400017D193681B0219D4936843F4000393608D
:100E50000968102912D10C490C4A0968B1FBF2F15A
:100E600001EB8101490000E0491E00910029FBD1FE
:100E700004E0816A41F020018162012480F824505D
:100E80002046F8BD00240140E000002040420F0051
:100E90000068C06C704700002DE9F0414FF000077A
:100EA00004003D467ED0A06A002628B9E66284F898
:100EB0002460204600F07EF82046FFF70DFDA16A71
:100EC000C90600D420B1A06A40F01000A06269E019
:100ED000A16A21F4885141F00201A1626268E169CE
:100EE000237B0A4347EA43010A43A1684FF4807712
:100EF000B94209D0012907D05FF0000194F814C06D
:100F0000BCF1010F02D00AE03946F7E7F3B1A36A5A
:100F100043F02003A362E36A43F00103E362236822
:100F2000D3F804C02CF4694C4CEA010CC3F804C09B
:100F300021688B68DFF870C003EA0C0313438B60F1
:100F4000A168B9420BD0012909D00CE0DFF85CC0E0
:100F5000A3690CEB43330B4343F40061DFE7218AC1
:100F60000D05A5F580152168CB6A23F470032B438A
:100F7000CB62216889680E4B1940914208D1E66224
:100F8000A16A21F0020141F00101A162BDE8F081F6
:100F9000A06A20F0020040F01000A062E06A40F079
:100FA0000100E0620120F1E7FDF7E1FF00E0FFFF53
:100FB000FE0E1FFF00B585B0002100910191029146
:100FC000039100680E49884218D10E48816941F4A6
:100FD00000718161816901F400710491816941F0BE
:100FE000040181618069694600F0040004900220D8
:100FF000009003200190044800F018F905B000BDEE
:101000000024014000100240000801402DE9F8438F
:1010100000270D460446009700F0FEF98046206840
:101020008168C90508D5A06A40F02000A06284F854
:1010300024700120BDE8F8834168C90503D4C06A63
:1010400010F4700F2AD0022000F026FF3B490968F7
:10105000B1FBF0F62068036939490B424FEA6101A0
:101060004FEAA1121FD1C3684FEA611C13EA0C0FAB
:1010700019D103690B4225D1C068104222D1142036
:1010800023E0681C0AD02DB100F0C6F9A0EB0800DF
:10109000A84203D920680068800725D52068006829
:1010A0008007EED52DE003690B4202D1C1681142E1
:1010B00006D0026923490A4206D1C068084203D11A
:1010C000542002E0292000E0FC204643009816E06E
:1010D000681C11D02DB100F09FF9A0EB0800A842C8
:1010E0000AD90098B04207D2A06A40F00400A0627A
:1010F00084F8247003209DE70098401C0090B042C3
:10110000E6D321686FF012000860A06A40F4007016
:10111000A06220688068C0F3424007280CD1207B81
:1011200050B9A06A20F48070A062A06AC00403D401
:10113000A06A40F00100A06200207BE7E0000020F0
:10114000244992244992240070B5044690F8240062
:1011500001280DD0012084F824002046FFF7E8FB89
:1011600002004FF0000005D084F82400104670BD46
:10117000022070BDA16A40F20123994341F48071BD
:10118000A1621F4D23681F49AB4218D10E6816F4A7
:10119000702F14D0A66A46F48016A6620E687605F3
:1011A00005D5A66A26F4005646F48056A662A66ABD
:1011B000F6040AD5E66A26F00606E66206E0A66AA6
:1011C00026F48016A6625E68E9E7E06284F82400EF
:1011D0006FF00200186020688368C3F34243072B56
:1011E00005D1A84208D1096811F4702F04D0816894
:1011F00041F480118160B9E7816841F4A001F9E709
:10120000002801400424014070B5044600F004F9B0
:101210000546601C02D004480078044400F0FCF845
:10122000401BA042FAD370BDD40000202DE9F84F36
:10123000DFF8B8910024A9F1040B23460F2709F128
:10124000040AABF1040EC9E00125A5402A40AA42D8
:101250007DD1674ED1F804C0ACEB0608B44532D05E
:1012600014DCBCF1030F3AD009DCBCF1000F2AD02A
:10127000BCF1010F1CD0BCF1020F31D11DE0BCF15B
:10128000110F17D0BCF1120F2AD119E0B8F5881F41
:1012900019D006DCB8F5803F15D0B8F5801F1FD1F6
:1012A00011E0B8F5001F0ED0B8F5041F18D10AE000
:1012B000CB6815E0CB681B1D12E0CB6808330FE04C
:1012C000CB680C330CE08B682BB1012B4FF008037B
:1012D00003D0456104E0042302E0056100E000233F
:1012E000FF2A01D8064601E000F104064FEA840512
:1012F00001D9A5F12005D6F8008007FA05FC28EAF7
:101300000C0803FA05F548EA0508C6F800804D68A0
:10131000ED0062D5374DAE6946F00106AE61AD69AC
:1013200024F0030605F001050095334D06EB050C8E
:10133000DCF80850A607360F07FA06F825EA080574
:10134000DFF8B880404503D14FF0000817E044E0D3
:10135000DFF8AC80404502D14FF001080FE0DFF824
:10136000A480404502D14FF0020808E0DFF89880E1
:10137000404502D14FF0030801E04FF0040808FA9D
:1013800006F848EA0508CCF808804D68D9F80060EE
:10139000ED024D4601D5164300E096432E604D68A0
:1013A000DAF80060AD02554601D5164300E09643D9
:1013B0002E604D68DBF80060AD035D4601D5164335
:1013C00000E096432E604D68DEF80060ED03754640
:1013D00001D5164300E096432E60641C0D682A4632
:1013E000E5407FF431AFBDE8F88F0000080401400C
:1013F00000001110001002400000014000080140F0
:10140000000C014000100140001401400AB10161CC
:1014100070470904FBE7000001488068704700003E
:10142000D400002070B5040025D094F83D000025BC
:1014300020B984F83C50204600F03CFC242084F87D
:101440003D002068016821F0010101602068016809
:1014500041F4004101602068016821F4004101600D
:1014600000F098FE4D4A6168914201D84C4900E075
:101470004C49884201D2012070BD4B492368B0FB22
:10148000F1F15E6826F03F060E435E6063689342AA
:1014900006D94FF4967359434FF47A73B1FBF3F1C5
:1014A0002368491C1E6A26F03F06314319626168B1
:1014B000914210D84900401EB0FBF1F2521CC2F319
:1014C0000B02042A01D2042022E0B0FBF1F0401C00
:1014D000C0F30B001CE0A268F2B301EBC10303EB05
:1014E0000116431EB3FBF6F35B1C43F480431B055C
:1014F00049D092B301EBC10202EB0111401EB0FBD7
:10150000F1F0401CC0F30B0040F4804040F4004078
:101510002168CA694CF6FF739A431043C861D4E945
:10152000071001432068026822F0C00211430160E5
:10153000D4E9030101432068826848F2FF339A43EB
:1015400011438160D4E9050108432168CA6822F08B
:10155000FF021043C86001E00EE016E02068016859
:1015600041F0010101602564202084F83D002563DD
:1015700084F83E50002070BD01EB4106431EB3FBD2
:10158000F6F35B1CB3E70120C2E701EB4101401E0B
:10159000B0FBF1F0401CC0F30B00B7E7A0860100E0
:1015A00080841E0000093D0040420F002DE9F84FE5
:1015B0000025DDF82890984617468A46044600958F
:1015C000FFF72AFF064694F83D0020287AD1192318
:1015D000012286492046009601F04CFC0028F5D1F6
:1015E00094F83C0001286DD0012084F83C0020686C
:1015F0000168C90703D1016841F001010160206859
:10160000016821F400610160222084F83D0010206F
:1016100084F83E0025646762A4F82A80608D2085E6
:101620007348E06233464A465146204601F060FA6C
:1016300000287CD1208DDFF8BC81202768B10128EB
:1016400014D00228206801681ED041F48061016036
:101650002068416980690090BBE020684169816928
:101660000091016841F400710160B2E020680168F6
:1016700021F48061016072B620684169816900913E
:10168000016841F400710AE041F40061016072B642
:101690002068416981690091016821F480610160DD
:1016A00062B696E0032865D801280CD002284B4684
:1016B0004FF000024146204600960BD001F0DAFBC5
:1016C000A8BB0CE090E032464946204601F078FC89
:1016D00068BB71E001F0CEFB48BB72B633E0206816
:1016E000016821F48061016072B620680069616A56
:1016F0000870606A401C6062208D401E2085608DED
:10170000401E60853C4846F2A8110068B0FBF1F02D
:10171000C0EBC00000EB80000090401E009007D09E
:1017200020684069C04340070DD50098F5E727E0E1
:1017300044F8305F6773A573206940F02000206192
:1017400062B625731CE02068016841F400710160F5
:1017500020680069616A0870606A401C6062218DBF
:10176000491E2185618D491E618562B6216809691E
:10177000017025E032464946204601F021FC10B1B7
:101780000120BDE8F88F20680069616A0870606A0E
:10179000401C6062208D401E81B22185608D401EFC
:1017A000608520684269D243520712D4032903D1CD
:1017B000016821F48061016020680069616A087035
:1017C000606A401C6062208D401E2085608D401E36
:1017D0006085208D00287FF465AF84F83D7084F823
:1017E0003E5084F83C50CCE70220CAE702001000CB
:1017F0000000FFFF04000100E00000202DE9F84F89
:101800001F4690468A460446DDF82890FFF704FEFE
:10181000054694F83D0020287FD119230122404934
:101820002046009501F026FB002876D194F83C0074
:10183000012872D0012084F83C0020680168C907A3
:1018400003D1016841F0010101602068016821F4C1
:1018500000610160212084F83D00102084F83E00E2
:1018600000262664C4F824806785608D20852D4875
:10187000E0622B464A465146204601F0AFF990B946
:10188000206841698069009036E02A464946204632
:1018900001F0CEFB50B1206C042804D1206801680F
:1018A00041F4007101600120BDE8F88F606A216891
:1018B00000780861606A401C6062618D491E618524
:1018C000218D491E89B2218522685369DB435B075C
:1018D0000BD451B100781061606A401C6062608D69
:1018E000401E6085208D401E20852A4649462046A0
:1018F00001F094FA0028CED1208D0028C5D154F8EB
:101900003D0B016841F400710160202004F81E09BC
:10191000E67766770020C7E7FFE70220C4E700000C
:10192000020010000000FFFF2DE9FF4F83B00025EB
:10193000DDE910799A4693460446DDF84880009523
:10194000FFF76AFD064694F83D0020287CD1192354
:10195000012288492046009601F08CFA0028F5D132
:1019600094F83C0001286FD0012084F83C002068E6
:101970000168C90703D1016841F0010101602068D5
:10198000016821F400610160222084F83D004020BC
:1019900084F83E0025646762A4F82A90608D208553
:1019A0007548E062CDE9008653465A4620460499C0
:1019B00001F062F900287CD1208DDFF8C09120274A
:1019C00068B1012814D00228206801681ED041F4B3
:1019D000806101602068416980690090BCE02068F6
:1019E000416981690091016841F400710160B3E0CF
:1019F0002068016821F48061016072B62068416945
:101A000081690091016841F400710AE041F40061CC
:101A1000016072B62068416981690091016821F412
:101A20008061016062B697E0032865D801280CD078
:101A3000022843464FF000024946204600960BD04C
:101A400001F018FAA8BB0CE091E03246414620466E
:101A500001F0B6FA68BB72E001F00CFA48BB72B64E
:101A600033E02068016821F48061016072B620686B
:101A70000069616A0870606A401C6062208D401EC7
:101A80002085608D401E60853D4846F2A8110068A3
:101A9000B0FBF1F0C0EBC00000EB80000090401EF6
:101AA000009007D020684069C04340070DD50098DA
:101AB000F5E727E044F8305F6773A573206940F0CD
:101AC0002000206162B625731CE02068016841F4A3
:101AD0000071016020680069616A0870606A401CDA
:101AE0006062218D491E2185618D491E618562B626
:101AF00021680969017026E032464146204601F01E
:101B00005FFA18B1012007B0BDE8F08F20680069C6
:101B1000616A0870606A401C6062208D401E81B25C
:101B20002185608D401E608520684269D24352073E
:101B300012D4032903D1016821F480610160206877
:101B40000069616A0870606A401C6062208D401EF6
:101B50002085608D401E6085208D00287FF464AF55
:101B600084F83D7084F83E5084F83C50CBE7022066
:101B7000C9E70000020010000000FFFF04000100A0
:101B8000E00000202DE9FF4F83B09A46DDE9119770
:101B900093460446DDF84080FFF73EFC054694F886
:101BA0003D0020287FD1192301224049204600957D
:101BB00001F060F9002876D194F83C00012872D039
:101BC000012084F83C0020680168C90703D101683E
:101BD00041F0010101602068016821F400610160A9
:101BE000212084F83D00402084F83E000026266431
:101BF000C4F82480A4F82A90608D20852C48E062E7
:101C0000CDE9007553465A462046049901F0B2F8D2
:101C100070B930E02A463946204601F009FA58B139
:101C2000206C042804D12068016841F4007101602F
:101C3000012007B0BDE8F08F606A21680078086174
:101C4000606A401C6062218D491E89B22185628DC7
:101C5000521E628522685369DB435B070BD469B16E
:101C600000781061606A401C6062208D401E2085F3
:101C7000608D401E6085208D0028CBD12A463946D4
:101C8000204601F0CBF80028CAD154F83D0B01687A
:101C900041F400710160202004F81E09E6776677A0
:101CA0000020C6E7FFE70220C3E7000002001000A3
:101CB0000000FFFF10B586B0002100910191029154
:101CC000039100680F4988421AD10F4CA06940F077
:101CD0000800A061A069694600F008000490C020D7
:101CE000009012200190032003900848FFF79EFA0D
:101CF000E06940F40010E061E06900F40010049035
:101D000006B010BD0054004000100240000C01401D
:101D1000024881680278114481607047D400002035
:101D2000074810B5016841F010010160032000F080
:101D3000A1F80F2000F006F800F04AF8002010BDCE
:101D40000020024030B505461C4887B0816941F447
:101D500000618161806906A900F40060009001A81B
:101D600000F0F8F900F026FA1549164AB0FBF1F137
:101D70001548491E0260416040F2E7320021C0E987
:101D800003218160816100F011FC040012D10E4832
:101D900000F058FC04000DD1192000F03DF8102D82
:101DA00007D200222946192000F044F807480560B0
:101DB00000E0012407B0204630BD000000100240C2
:101DC00040420F00002C014000050020D8000020F8
:101DD0000F4808B5816941F001018161816901F015
:101DE00001010091C16941F08051C161C0690022C7
:101DF00000F0805000900F21901E00F01BF8054865
:101E0000416821F0E06141F00071416008BD0000CF
:101E10000010024000000140002809DB00F01F0212
:101E2000012191404009800000F1E020C0F800113C
:101E300070470000F0B40E4B1B680C46C3F302233E
:101E4000C3F10705042D00D90425191D072901D266
:101E5000002300E0DB1E012606FA05F1491E2140A1
:101E600099409E40761E16403143F0BC01F0AABE58
:101E70000CED00E0064900F0070208684FF6FF038A
:101E8000184040EA0220034A1043086070470000EF
:101E90000CED00E00000FA0510B501460020234CCF
:101EA000012922D0022939D010291DD16168226868
:101EB000D20119D51E48C1F38342C903805C0AD5FB
:101EC00061681B4AC1F34041921E515C194AB2FB42
:101ED000F1F1484301E0184948436168490203D4DD
:101EE00040000321B0FBF1F010BD226AC2F30121D2
:101EF000012903D1920701D5C80310BD022905D1DC
:101F0000626A920702D549F6404010BD0329FCD110
:101F100021688903F9D54FF2244010BD00F04AF939
:101F20006168C1F38131491C4900DBE700100240C0
:101F30004C5A000800127A0000093D002DE9F843D0
:101F400005460078354CC00754D0E0690026C00033
:101F500008D4E06940F08050E061E069012600F0BB
:101F6000805000902E480168C90512D4016880464F
:101F700041F480710160FFF74FFA074605E000BFAA
:101F8000FFF74AFAC01B642823D8D8F80000C00520
:101F9000F6D5206A10F4407021D0A98801F4407170
:101FA00081421CD0206A1F49012220F440700A603F
:101FB00000220A602062C00711D0FFF72DFA074601
:101FC00041F2883808E000BFFFF726FAC11B4145FF
:101FD00002D90320BDE8F883206A8007F4D5206A7F
:101FE000696820F44070084320621EB1E06920F067
:101FF0008050E0612878800705D56068A96820F4E2
:102000004040084360602878C00605D56068E968EC
:1020100020F48000084360600020DBE700100240ED
:1020200000700040400442422DE9F0470F46050091
:1020300061D0434E306800F00700B84209D23068E2
:1020400020F0070038433060306800F00700B842E5
:1020500051D128683B4C810712D5400703D56068F1
:1020600040F4E06060602878000703D5606840F4C1
:10207000605060606068A96820F0F000084360600C
:102080002878C00728D06868012810D02168022865
:1020900010D0890700292EDA616821F0030101437D
:1020A0006160FFF7B9F9804641F288390DE0216897
:1020B0008903EFE78901EDE7FFF7AEF9A0EB08012F
:1020C000494502D90320BDE8F0876068696800F0DF
:1020D0000C00B0EB810FEFD1306800F00700B84280
:1020E0000BD9306820F0070038433060306800F0CA
:1020F0000700B84201D00120E5E72878400705D560
:102100006068E96820F4E0600843606028780007B0
:1021100006D56068296920F4605040EAC10060601B
:1021200000F058F86168084AC1F30311515CC840D7
:102130000649086006480068FFF704FE0020C2E771
:1021400000200240001002405C5A0008E00000201D
:10215000D80000200F2202600C4A536803F00303EA
:102160004360536803F0F0038360536803F4E06353
:10217000C36052684FF4E06303EAD202026104488C
:10218000006800F00700086070470000001002407F
:10219000002002400448054900684968044AC1F328
:1021A0000221515CC8407047E0000020001002404E
:1021B0006C5A00080448054900684968044AC1F39C
:1021C000C221515CC8407047E0000020001002406E
:1021D0006C5A00080E4A51680E4801F00C03042B9B
:1021E00011D0082B0FD10C48C1F38343C903C05C45
:1021F0000AD55168084AC1F34041921E515C054A14
:102200005043B0FBF1F07047044948437047000069
:102210000010024000127A003A5A000800093D00FE
:102220002DE9F84F040070D02078C04DC00749D088
:102230006868C0F38100012807D06868C0F3810096
:10224000022809D16868C00306D52868800339D5FB
:1022500060680028E7D035E06068B0F5803F0BD0BB
:1022600010B1B0F5A02F11D0286820F4803028607C
:10227000286820F4802002E0286840F4803028603C
:10228000606890B1FFF7C8F806460AE0286840F495
:1022900080202860F0E700BFFFF7BEF8801B6428AD
:1022A00073D828688003F7D50CE0FFF7B5F8064629
:1022B00005E000BFFFF7B0F8801B6428F0D828685D
:1022C0008003F7D420789A4E80074FF001094FF031
:1022D000000839D5686810F00C0F07D06868C0F3A3
:1022E0008100022809D16868C00306D428688007E5
:1022F00014D52069012808D110E02069B0B1C6F8D2
:102300000090FFF789F8074605E00AE1FFF784F837
:10231000C01B0228C4D828688007F7D528686169DF
:1023200020F0F80040EAC10028600DE0C6F8008007
:10233000FFF772F8074604E0FFF76EF8C01B0228AB
:1023400023D828688007F7D4207800072CD579484F
:10235000A169D9B1C0F80090FFF75EF8074604E024
:10236000FFF75AF8C01B02280FD8686A8007F7D514
:1023700071484FF4FA510068B0FBF1F0009000BFD3
:102380000098411E0091FAD20EE080E0C0F8008073
:10239000FFF742F8074604E0FFF73EF8C01B0228AB
:1023A00075D8686A8007F7D42078400760D5E86957
:1023B0000027C00008D4E86940F08050E861E8696F
:1023C000012700F0805000905C480168C90513D4D3
:1023D0000168834641F480710160FFF71DF8824671
:1023E00006E000BFFFF718F8A0EB0A0064284ED8FB
:1023F000DBF80000C005F5D5E06801280AD008B177
:10240000052813D0286A20F001002862286A20F0ED
:10241000040002E0286A40F001002862E06841F20E
:10242000883B98B1FEF7F8FF82460BE0286A40F03F
:1024300004002862EEE700BFFEF7EEFFA0EB0A0102
:1024400059455AD8286A8007F6D50CE0FEF7E4FF14
:10245000824605E0FEF7E0FFA0EB0A0159454CD8A3
:10246000286A8007F6D41FB1E86920F08050E8613F
:10247000E06988B36968C1F38101022944D0022868
:10248000C6F8608004D0FEF7C7FF044638E034E0A9
:10249000FEF7C2FF074604E0FEF7BEFFC01B02289E
:1024A0002BD828688001F7D4206AB0F5803F05D189
:1024B0006868A16820F4003008436860D4E9080126
:1024C0000843696821F4741108436860C6F8609095
:1024D000FEF7A2FF044606E025E000BFFEF79CFFE2
:1024E000001B022809D828688001F7D51BE000BF2F
:1024F000FEF792FF001B022802D90320BDE8F88FE7
:1025000028688001F4D40EE00128F7D06868226AB8
:1025100000F48031914204D1616A00F47010884265
:1025200001D00120EAE70020E8E7000000100240A7
:102530000000424280044242E0000020007000405F
:102540007047704770B590F83C20012A26D00124CE
:1025500080F83C40022280F83D2003685A689D685C
:1025600022F070060A6832435A600D4B02689A42A4
:1025700008D0B2F1804F05D00A4B9A4202D00A4BE4
:102580009A4204D1496825F080031943916080F88C
:102590003D40002180F83C10084670BD022070BD0F
:1025A000002C0140000400400008004010B5040069
:1025B00003D094F83D0010B107E0012010BD0020C9
:1025C00084F83C00204600F01FF8022084F83D000B
:1025D000211D206801F05CF9012084F8460084F890
:1025E0003E0084F83F0084F8400084F8410084F8FD
:1025F000420084F8430084F8440084F8450084F8DD
:102600003D00002010BD000008B500680B4988425D
:1026100012D10B48C16941F00201C161C0690022B9
:1026200000F00200009005211D20FFF703FCBDE82B
:1026300008401D20FFF7F0BB08BD0000000400406B
:102640000010024090F83D10012901D00120704790
:10265000022180F83D100168CA6842F00102CA6098
:1026600000680B49884208D0B0F1804F05D0094975
:10267000884202D00849884204D1816801F00701EC
:10268000062903D0016841F0010101600020704774
:10269000002C0140000400400008004070B50446D2
:1026A00090F83C000025012817D0012684F83C60F2
:1026B000022084F83D002068826822F0770222F42C
:1026C0007F4282600868502838D00DDC20284FD027
:1026D00005DC90B3102811D14AE0022070BD3028EB
:1026E00046D040280AD13BE060282FD070280DD07A
:1026F000B0F5805F03D0B0F5005F12D0012584F8FB
:102700003D60002084F83C00284670BDCB68D1E9CC
:102710000121206801F0F8F82068816841F0770114
:1027200009E0CB68D1E90121206801F0EDF82068CB
:10273000816841F480418160E1E719E0CA68496835
:10274000206801F0F3F85021206806E0CA68496863
:10275000206801F0FCF86021206801F0DFF8CEE786
:10276000CA684968206801F0E1F840212068F4E770
:10277000226801461046F0E770472DE9F041044613
:102780000068C66805694FF00007A90713D5B107AF
:1027900011D5F91E0161012020772068806980072A
:1027A000204602D0FFF7E8FF04E000F07EF8204664
:1027B00000F07CF82777680716D5700714D52168D4
:1027C0006FF004000861022020772068806910F40F
:1027D000407F204602D0FFF7CFFF04E000F065F80D
:1027E000204600F063F82777280715D5300713D562
:1027F00021686FF008000861042020772068C06914
:102800008007204602D0FFF7B7FF04E000F04DF844
:10281000204600F04BF82777E80616D5F00614D5C9
:1028200021686FF010000861082020772068C069D7
:1028300010F4407F204602D0FFF79EFF04E000F036
:1028400034F8204600F032F82777E80708D0F00780
:1028500006D021686FF001000861204600F028F8DA
:10286000280608D5300606D521686FF0800008617B
:102870002046FFF765FE680608D5700606D5216874
:102880006FF040000861204600F030F8A8060AD535
:10289000B00608D521686FF0200008612046BDE829
:1028A000F041FFF74EBEBDE8F08170477047000071
:1028B00070B5044600680A4DA84201D1FFF728FA16
:1028C0002068A8420BD107480168491C0160B1F596
:1028D000FA7F04D30021016003490120087070BD14
:1028E000002C01400C00002008000020704770B54B
:1028F000040004D094F84100002510B106E0012046
:1029000070BD84F84050204600F024F8242084F85C
:1029100041002068C16821F40051C160204601F0E7
:102920004FF82068016921F49041016120684169F4
:1029300021F02A0141612068C16841F40051C16061
:102940006564202084F8410084F84200656300201B
:1029500070BD000070B586B000240094019402940C
:1029600003942B4E03682B49022003222A4DB342C5
:1029700021D18B6943F480438B618B6903F48043DD
:1029800004938B6943F004038B618969039201F01E
:10299000040104910102CDE9001069462846FEF7C2
:1029A00045FC2815CDE90004694628460294FEF747
:1029B0003DFC06B070BD194EB342FAD1CB6943F469
:1029C0000033CB61CB6903F4003304938B6943F08C
:1029D00004038B618969039201F0040104910421CD
:1029E000CDE9001069462846FEF720FC0820CDE915
:1029F0000004694628460294FEF718FC00220521CF
:102A00002620FFF717FA2620FFF706FAD1E7000085
:102A1000003801400010024000080140004400401E
:102A20002DE9F843044690F84100984616460D46B5
:102A3000202802D00220BDE8F88385B17EB10020B5
:102A40006064212084F84100FEF7E6FCA6848146FC
:102A5000E684A0682027B0F5805F02D003E0012063
:102A6000E9E7206910B12E4600250EE000260CE0B3
:102A70008021204601F000F8A8B9C6B116F8010B74
:102A800021684860E08C401EE084E08C4B464FF0AB
:102A90000002CDF800800028EAD14FF04001204626
:102AA00000F0EAFF40B184F841700320C3E735F835
:102AB000020BC0F30800E3E784F841700020BAE796
:102AC000FEE701684A69D24352050FD46FF4806271
:102AD0004A61002140F8301F20224273817302694D
:102AE00042F0040202610173012070470020704728
:102AF0002DE9F84F0446C06A1E4693460D462168EC
:102B00000A6842F480620A60082807D0012805D0CC
:102B100010F5803F02D0206B112804D12068016895
:102B200041F4807101604FF001195B460022494673
:102B30002046009600F09EF94FF4007840B12068DE
:102B40000068C00501D5C4F840800320BDE8F88FB7
:102B50002069DFF884A0B0F5804F0FD006202168EF
:102B600000EAD51747F0F000086133465A460AF1EB
:102B70000601204600F0C6F958BB03E0E8B240F079
:102B800001001CE02168E8B2086133465A4651460C
:102B9000204600F0B7F9E0B92068416981690091E9
:102BA000016841F4807101605B460022494620467D
:102BB000009600F05FF90028C1D147F0F1002168CC
:102BC000086133465A465146204600F09BF90028DA
:102BD000BCD00120BAE7000002000100F8B50446AD
:102BE000C06A1E460D461746082807D0012805D0A2
:102BF00010F5803F02D0206B122804D120680168B4
:102C000041F480710160134600224FF0011120460B
:102C1000009600F02FF940B120680068C00502D589
:102C20004FF4007020640320F8BD2069B0F5804F98
:102C30000ED00620216800EAD51040F0F0000861AF
:102C400033463A460B49204600F05CF978B902E079
:102C500005F0FE0000E0E8B221680861054933464E
:102C60003A46891F204600F04DF90028DCD00120AB
:102C7000F8BD0000080001002DE9F84F0446006887
:102C800089460B9D01689846174641F480610160B2
:102C90002068016841F48071016000954FF0011BCC
:102CA0000022594620460A9B00F0E4F84FF4007ACF
:102CB00040B120680068C00501D5C4F840A00320D9
:102CC000BDE8F88F216809F0FE0008612B4628490D
:102CD00020460A9A00F016F9F0BB20684169806925
:102CE00000902A4620460A9900F0A2F940B1206CD3
:102CF00004283AD12068016841F40071016034E091
:102D0000FEB2B8F1010F09D02168380A08612A46DD
:102D100020460A9900F08CF90028E8D12068066165
:102D20002A4620460A9900F083F90028DFD120685E
:102D3000016841F4807101600095002259462046E7
:102D40000A9B00F097F80028B3D1216809F0FF0032
:102D500040F00100086100E007E02B4604492046EE
:102D60000A9A00F0CFF80028AAD00120A8E70000B6
:102D7000020001002DE9F843044600680D46DDE934
:102D8000089701689846164641F4807101604B46E9
:102D900000224FF001112046009700F06BF848B177
:102DA00020680068C00502D54FF40070206403203D
:102DB000BDE8F883216805F0FE0008613B464A46FD
:102DC0001549204600F09EF888B92068416980695D
:102DD00000903A464946204600F02AF948B1206C56
:102DE000042804D12068016841F4007101600120C9
:102DF000DEE7F5B2B8F1010F09D02168300A0861A9
:102E00003A464946204600F013F90028E7D12068E9
:102E100005610020CCE700000200010070B51646F5
:102E20000D4604461EE02046FFF74BFE08B1012088
:102E300070BD681C16D0FEF7EFFA801BA84200D8C0
:102E400085B920684069C04340070BD5002044F88D
:102E5000300F20216173A073216941F020012161AD
:102E60002073E4E720684069C0434007DBD40020BA
:102E700070BD00002DE9F047984617460D46044600
:102E8000C1F30746DDF820902AE000BFB8F1FF3F0C
:102E900026D0FEF7C1FAA0EB0901414502D8B8F1EE
:102EA000000F1DD12068012E16D0806925EA000090
:102EB0000004000C12D00020B84211D1002044F8C8
:102EC000300F20216173A073216941F0200121613D
:102ED00020730120BDE8F0874069E7E70120EBE7B8
:102EE0002068012E0AD0806925EA00000004000C49
:102EF00006D00020B842C9D00020EBE74069F3E7D4
:102F00000120F7E72DE9F047984616460D4604469E
:102F10004FF000094FF0200AC1F3074723E0206873
:102F20004069C043400515D42068016841F4007130
:102F3000016021686FF480604861C4F8309084F8C3
:102F40003DA084F83E90216C41F00401216484F896
:102F50003C9021E0701C06D0FEF75EFAA0EB080062
:102F6000B04203D816B1012F1FD021E02068012FF5
:102F700015D0806925EA00000004000C18D000BFBD
:102F800044F8309F84F80DA084F80E90216941F038
:102F90002001216184F80C900120BDE8F087406990
:102FA00025EA00000004000CEAD12068406901E035
:102FB0002068806925EA00000004000CAFD1ECE72E
:102FC0002DE9F041002590460E460446202728E0D2
:102FD0004069C043C0060CD454F8301B6FF0100099
:102FE000486144F810596777A577206A20622577F1
:102FF00014E0FEF711FAA0EB0800B04200D886B941
:1030000020684069C04340060BD544F8305F6773C1
:10301000A573206940F02000206125730120BDE8E0
:10302000F08120684169C9434906D1D40020F6E700
:1030300070B516460D4604461EE02046FFF741FDDA
:1030400008B1012070BD681C16D0FEF7E5F9801BA1
:10305000A84200D885B920684069C04300060BD556
:10306000002044F8300F20216173A073216941F0E2
:10307000200121612073E4E720684069C043000615
:10308000DBD4002070BD00007CB500258DF8045015
:1030900047208DF80500FF248DF80640032301AA80
:1030A00082210B480094FEF7A9FB0520FEF7ACF83F
:1030B00005208DF8040014208DF805008DF80650C9
:1030C000032301AA822102480094FEF797FB7CBDEE
:1030D000D403002070B500F059F8064600F03AF825
:1030E000044600F06FF805463046FDF7AAFA13498A
:1030F000FDF798F806462046FDF7A3FA1049FDF7BC
:1031000091F81049FDF7C0F804462846FDF799FAF2
:103110000D49FDF787F805460C492046FDF782F872
:10312000FDF7A1FA0A4CE0803046FDF79CFA2081B9
:103130002846FDF798FA608170BD0000CDCCCC3DEB
:103140000000A03F00007A44000020400000C84278
:10315000680600203EB50BA0FF2400680290012302
:1031600002AA822100940848FEF748FB022301AA24
:10317000822105480094FEF719FABDF8040040BA10
:103180003EBD000002000000D40300203EB50BA0AD
:10319000FF2400680290012302AA822100940848BB
:1031A000FEF72CFB022301AA822105480094FEF7BA
:1031B000FDF9BDF8040040BA3EBD00000400000067
:1031C000D40300203EB50BA0FF2400680290012329
:1031D00002AA822100940848FEF710FB022301AAEC
:1031E000822105480094FEF7E1F9BDF8040040BAD9
:1031F0003EBD000003000000D40300200A4B01285C
:1032000008D002280ED1C001012906D0002909D119
:10321000012203E04FF40070F6E700220146184651
:10322000FEF7F4B870470000000C01403EB50021E5
:10323000124800910191104A02910260816001736D
:10324000017501244FF460220461C2614160FDF701
:1032500023FE08B1FDF730FD07200094CDE90140C1
:1032600069460648FDF796FD08B1FDF725FD0348C0
:10327000FDF724FD3EBD000000240140A403002012
:1032800000B587B01C2206496846FCF7A7FF00215D
:10329000684601F01FF80349086007B000BD000050
:1032A0001C580008100000202DE9F04186B00024D1
:1032B0002D480094019402940394816941F0100117
:1032C0008161816901F010010491816941F020015F
:1032D0008161816901F020010491816941F004015B
:1032E0008161816901F004010491816941F0080163
:1032F000816180691D4F00F008004FF40055049073
:10330000002229463846FEF781F8DFF86480002263
:1033100006214046FEF77AF801224FF440714046FC
:10332000FEF774F80095022601250396CDE90154B5
:1033300069463846FDF77AFF40F20230CDE90005D4
:10334000CDE9024669464046FDF770FF0420CDE90D
:1033500000050320CDE9024069464046FDF766FFBF
:1033600006B0BDE8F08100000010024000100140EE
:10337000000C01400D4810B50B4901600C4941603B
:1033800000214FF480428160C0E9031241618161F4
:10339000C1610162FEF746F8002803D0BDE8104085
:1033A000FDF78ABC10BD000000540040D40300208B
:1033B000A086010010B586B000241748009401943F
:1033C00002940394049413490594016040F60F613C
:1033D000C0E901146421C0E903148461FFF7E6F831
:1033E00008B1FDF769FC4FF48050009069460A4827
:1033F000FFF754F908B1FDF75FFC049404A90648EF
:103400000594FFF79FF8002801D0FDF755FC06B0A2
:1034100010BD000000040040280400200C4810B536
:103420000A4901604FF4E1314160002181600C22C2
:10343000C160C0E904128161C161FFF758FA002838
:1034400003D0BDE81040FDF737BC10BD0038014087
:10345000700400200C4810B50A4901604FF4E131B6
:103460004160002181600C22C160C0E904128161C9
:10347000C161FFF73CFA002803D0BDE81040FDF71A
:103480001BBC10BD00440040B8040020FEE700F063
:1034900009F800F0A3FD00F029F80A2000F00EFF63
:1034A000F7E7000038B50B49002000F06FF9094C30
:1034B00009A0641E617800F075FB002000904FF4B5
:1034C000E1330246617800F047FDBDE8384000F086
:1034D00063BC000009000020536C617665416464A0
:1034E000726573733D25640A0000000070B5204CBE
:1034F0002078002630B12670FDF722FBFFF7EAFDA9
:10350000FDF754FAA0781B4D70B1A670A97C6170CC
:10351000002000F033FB0A20FDF776FE00F02CFCC3
:1035200000F01AFCFFF7BEFF2878C00701D0012188
:1035300000E000210120FFF761FE2878800701D517
:10354000012100E000210220FFF758FE2878400703
:1035500001D5012000E00020FDF79CFB2878000742
:1035600001D5012000E00020BDE8704000F0FEB869
:103570000800002068060020FEE70020AFF300806E
:1035800070B506465FF0000404F1B000C0B200F070
:10359000D1FA002000F0CEFA102000F0CBFA00257E
:1035A000304600F0D9FA6D1CEDB2802DF8D3641CC2
:1035B000E4B2082CE8D370BD10B50120FDF724FE5D
:1035C000AE2000F0B7FA202000F0B4FA102000F08E
:1035D000B1FAB02000F0AEFAC82000F0ABFA00203B
:1035E00000F0A8FA102000F0A5FA402000F0A2FA9E
:1035F000812000F09FFAFF2000F09CFAA12000F04B
:1036000099FAA62000F096FAA82000F093FA3F203D
:1036100000F090FAA42000F08DFAD32000F08AFA8E
:10362000002000F087FAD52000F084FAF02000F0A6
:1036300081FAD92000F07EFA222000F07BFADA200D
:1036400000F078FA122000F075FADB2000F072FA30
:10365000202000F06FFA8D2000F06CFA142000F0AA
:1036600069FABDE81040AF2000F064BA10B5044616
:10367000B031C8B200F05EFA102040EA141000F039
:1036800059FA04F00F00BDE8104040F0010000F0CE
:1036900051BA00002DE9F047002591468A460446BC
:1036A000012B22D0DFF8BC80022B24D155E020383A
:1036B000C7B27E2C04D90AF10100002400F0FF0AF1
:1036C00051462046FFF7D2FF07EB4700002608EBE4
:1036D0004007B85D00F040FA761CF6B2062EF8D32B
:1036E000A41D6D1CE4B2EDB201E0DFF87C8019F896
:1036F00005000028DBD1BDE8F0872038C7B2782C60
:1037000004D90AF10100002400F0FF0A51462046C6
:10371000FFF7ACFF5FF0000606EB071118F8010099
:1037200000F01AFA761CF6B2082EF5D30AF1010061
:10373000C1B22046FFF79AFF5FF0000606EB0711C3
:1037400001EB0800007A00F007FA761CF6B2082EAA
:10375000F4D308346D1CE4B2EDB219F8050000286A
:10376000CBD1C8E72C52000804500008064B0128B2
:1037700006D0002806D1002202211846FDF746BED9
:103780000122F9E770470000000C01403EB50C46ED
:1037900001254FF47A710094CDE9015102462B4680
:1037A000A1210548FEF7C0F8207808B1FF2800D114
:1037B000257001203EBD0000D403002010B550202C
:1037C00080F31188BFF34F8FBFF36F8F01F052FB6F
:1037D00018B104494FF080500860002080F3118830
:1037E00010BD000004ED00E030B593B0282168461C
:1037F000FCF70DFD14210AA8FCF709FD00250120A6
:103800000F9510951195010412958DE823000490F1
:103810004FF4E010CDE90810022407946846FEF743
:10382000FFFC08B172B6FEE70AA90F2081E831005B
:103830004FF48060CDE90D0502210AA8FEF7F4FBE4
:1038400008B172B6FEE74FF4004011900F940FA834
:10385000FEF774FB002801D072B6FEE713B030BD4E
:10386000704700000148FEF788BF000000050020F7
:10387000054800680169C90705D06FF001010161C1
:103880000248006800477047280400203C000020E0
:10389000F0B50268194B1A4C1A4D4FF08047984208
:1038A00005D0B84203D0A04201D0A84203D122F0F3
:1038B00070064A683243984205D0B84203D0A0420D
:1038C00001D0A84203D122F44074CA6822434C6953
:1038D00022F08002224302608A68C2620A68826221
:1038E000984201D109690163012141610169C90758
:1038F00003D0016921F001010161F0BD002C0140FC
:10390000000400400008004010B5846842EA032229
:1039100024F47F440A432243826010BD826822F06F
:1039200070020A4342F007018160704710B5036AD4
:10393000046A24F001040462846924F0F00444EA77
:10394000021423F00A020A438461026210BD10B51A
:10395000036A046A24F010040462846923F0A0035B
:1039600024F4704444EA023243EA011182610162A4
:1039700010BD01680C3151E8002F22F4907241E82B
:103980000023002BF5D10168143151E8002F22F0FB
:10399000010241E80023002BF5D1016B012909D177
:1039A00001680C3151E8002F22F0100241E8002399
:1039B000002BF5D1202180F84210002101637047CF
:1039C00070B5044600680169E26821F44051114372
:1039D00001612169A0680843616908432168CA68D8
:1039E00041F20C639A430243CA6020684169A269AC
:1039F00021F44071114341611E492068884202D17F
:103A0000FEF7D8FB01E0FEF7C5FB00EBC00101EBC0
:103A10000012606864218000B2FBF0F3B3FBF1F3A5
:103A20006FF018067343B2FBF0F5B2FBF0F605EB4E
:103A30008305322303EB0515B5FBF1F5B6FBF1F673
:103A400005F0F00505EB0615B2FBF0F6B2FBF0F061
:103A5000B0FBF1F06FF01802504306EB800003EB6F
:103A60000010B0FBF1F0216800F00F0028448860DE
:103A700070BD0000003801402DE9F8439846174614
:103A80000D460446089E24E0701C22D0FDF7C4FCBD
:103A9000A0EB0800B0421AD8CEB12068C16849072F
:103AA00017D5802D15D0402D13D00168C9430907C3
:103AB0000FD401680025406800902046FFF759FFA9
:103AC0000820606484F840500120BDE8F88303209A
:103AD000FBE72068006835EA000004D00020B84207
:103AE000D2D00020F1E70120F9E7000010B50D4C1D
:103AF00020680168890605D56FF0200101600A4839
:103B0000006880472068016809060AD501684906EF
:103B100007D56FF08001016004480068BDE81040DF
:103B2000004710BDB80400203400002038000020F9
:103B3000FEE700001CB500218DF804108DF805008B
:103B40004FF47A700090022301AA78210148FDF712
:103B500055FE1CBDD40300201CB540218DF8041077
:103B60008DF805004FF47A700090022301AA7821A5
:103B70000148FDF743FE1CBDD403002003B583B00C
:103B80004FF47A73012204A98DE80E001346024611
:103B9000A0210348FDF7F6FF05B0012000BD00009D
:103BA000D40300200FB4054B10B503A9044A0298B2
:103BB00000F028F810BC5DF814FB0000114200086A
:103BC0004C0100200907090E002804DB00F1E02069
:103BD00080F80014704700F00F0000F1E02080F83A
:103BE000141D704702E008C8121F08C1002AFAD14C
:103BF00070477047002001E001C1121F002AFBD16D
:103C0000704700002DE9FF4F89B09B460446002510
:103C100006E025280BD05A460B999047641C6D1C72
:103C200020780028F5D10DB02846BDE8F08F002798
:103C3000B8460122474900E0074314F8013F203B02
:103C400002FA03F00842F7D120782E2819D114F88F
:103C5000010F47F004072A280ED06FF02F022078BA
:103C6000A0F1300109290CD808EB880102EB4101D1
:103C700000EB0108641CF2E70A98641C50F8048BFE
:103C80000A9020780028CED0642808D0692806D071
:103C900075281ED05A460B9990476D1C58E00A991A
:103CA0004FF00A0901C90A91002802DA40422D2189
:103CB00002E0390504D52B218DF82010012103E005
:103CC000F90704D02021F7E78A4608AE0DE000216D
:103CD000FAE70A994FF00A0901C90A91F7E749463C
:103CE000FCF7F1FC303106F8011D0028F7D1ADEBEF
:103CF000060000F12009780701D44FF00108C845FB
:103D000002DDA8EB090000E000208046002706E065
:103D100008A85A46C05D0B9990476D1C7F1C5745FB
:103D2000F6DB04E030205A460B9990476D1CB8F141
:103D30000001A8F10108F5DC05E016F8010B5A4670
:103D40000B9990476D1CB9F10001A9F10109F4DC50
:103D5000641C65E709280100064810B501780024B5
:103D6000012902D00624204610BDC0690028FAD0DF
:103D70008047F8E71400002010B5064C207818B1F1
:103D8000012805D0062010BD606980470120207001
:103D9000002010BD1400002070B5064D00242878C6
:103DA000012802D00624204670BD286980470020E3
:103DB0002870F8E71400002070B50C46098800262A
:103DC000052925D1417805790A0281781143491CDA
:103DD0006A1E89B27C2A1BD800222280032200F8A6
:103DE000012B22880023521C22806A0000F8012B3C
:103DF0002288521C22802A4600F0D6F918B100F021
:103E000039FC064605E0208800EB4500208000E0F4
:103E10000326304670BD2DE9F0410446088800278E
:103E20000D460A2842D3607826790102A078227ACA
:103E30000843401C1FFA80F8E07846EA00266079C3
:103E4000731E0102A0790843401C81B2E0797C2BEB
:103E500042EA0022607A28D83AB3792A25D8B0EB12
:103E6000420F22D1012304F10A0000F09DF998B914
:103E700000212980172121702988601C491C298074
:103E8000710000F8011B29880023491C2980324653
:103E9000414600F089F918B100F0ECFB074605E057
:103EA000288800EB4600288000E003273846BDE85C
:103EB000F081000070B5064C0D4606492288401C72
:103EC000FCF78CF92088401C2880002070BD000081
:103ED000C00000204805002010B5098800240529ED
:103EE00002D00324204610BD417801230A028178C4
:103EF000C01C1143491C89B21A4600F055F900282C
:103F0000F0D000F0B7FB0446ECE770B50D46098829
:103F1000002406291DD341780A0281781143C27812
:103F2000491C1302027989B21A434379561E772E2F
:103F30000FD85606360E9E420BD10123801D00F08D
:103F400033F918B100F096FB044603E00520288001
:103F500000E00324204670BD2DE9F0411E46069B7B
:103F600017460546FF2906D029B1F72903D8134C77
:103F7000084621710DB102261BE01149216111494A
:103F800061611149E1601149A1610021E1611049BC
:103F90002162104961621049A1623246394600F03F
:103FA00079F8060005D100F0B7FD28B16571012050
:103FB00020703046BDE8F0810326FAE714000020A7
:103FC000794100089541000821410008D1400008CE
:103FD000194C0008C14C0008814C000838B52C4C25
:103FE000207808B1062038BD684600F087FD01281A
:103FF0004BD19DF80000E8B3012802D0022844D13B
:1040000010E0234AA369921D911CC81F984788BBE2
:1040100060782179884201D0FF2836D1022000F053
:1040200083FD32E0A0680121194B0278A270E17093
:1040300000212C3313F8315065B1954207D103EBC1
:10404000C1014A681249891D9047E07002E0491C8D
:104050001029EFDB6078FF2817D0E07880B10021CD
:10406000E180A17841F08002A1680A70E288521CC8
:1040700092B200E009E0E2808854E088401CE080D1
:10408000D4E90213E28820799847002038BD000067
:104090001400002070B51546084600240822294661
:1040A00000F052FD01280DD1B5F5964F01D923201E
:1040B00003E006496800B1FBF0F080B200F072FD49
:1040C000012800D00324204670BD0000A07F170007
:1040D0002DE9F041104C07461646A0888846002579
:1040E000FF2801D9AFF30080A088042804D3A18859
:1040F0000A4800F04BFB18B105252846BDE8F081C1
:10410000064800783870A088C01E30800348401CE4
:10411000C8F80000F1E70000C40000206805002096
:1041200070B5134C034600256078012802D00525A0
:10413000284670BD491E0126A160084666800B70A6
:10414000618811446180618800F020FB6188094A20
:104150005318491C61801870010A60880244401C91
:104160006080117026700121002000F075FBDFE7F0
:10417000C400002068050020054910B500204870E3
:104180000146012000F068FBBDE8104000F0A0BB34
:10419000C400002010B50021084600F05DFBBDE81A
:1041A000104000F083BB000030B54C1EA4B2A5182F
:1041B0000A2D01D9012030BD134D012B09D01EE07D
:1041C00030F8023B5BBA25F81430641C521EA4B2CE
:1041D00092B2002AF4D10A2913D10C4901200870A7
:1041E0000FE000BF35F81410090A00F8011B15F89C
:1041F0001410641C521E00F8011BA4B292B2002AD3
:10420000F0D1002030BD0000680600200A00002028
:1042100013B54FF0FF33012269460248FEF700FC58
:1042200000981CBD70040020FDF77AFDFFF7DCFA52
:10423000FFF73AF8FFF7F2F8FFF79CF8FEF7F6FF02
:10424000FFF7B8F8FFF706F90CA0FFF7ABFC10A0DA
:10425000FFF7A8FCFFF7B0F9FFF78FF9022310A2D0
:1042600000211020FFF716FAFCF74AFCFEF70CFFBE
:10427000FFF706F800F029F8FEE7000055617274B8
:104280003120696E6974206973206F6B0A00000029
:104290004D6F6462757320546573740A00000000EA
:1042A0004D6F6462757320436F6E74726F6C0000A3
:1042B00001460020842900D0C81C704710B500B901
:1042C000012000F089FB002010BD10B500F0AAFB12
:1042D000002010BD7FB50D4604464169B0F90800C5
:1042E00081B1A16971B1FFF7E3FFD4E905128DE84F
:1042F0000700D4E900102B46226900F090FD0390DE
:1043000004B070BDFFF7D4FF03A9CDE90001208AF6
:104310002B4682B2D4E9001000F054FD012801D0F0
:104320000020EDE70398EBE72DE9F041184C0F462C
:104330000546E6682068001D00F03EFA38B920689E
:1043400090F82C1001208840216981432161681C6C
:1043500007D137B12168BDE8F0410E48091D00F0D2
:104360006FBA20683544B5424560216805D2A06B1C
:10437000BDE8F041091D00F04BBA606B091D00F06B
:1043800047FAA06A854200D2A562BDE8F08100002C
:10439000E40000206C0700202DE9F041054600F004
:1043A000A3FA2E4CA068401CA06020682C4F10B1CE
:1043B000606940B32DE02560A068012829D100265E
:1043C00006EB860007EB800000F014FA761C072E3F
:1043D000F6D323488C3000F00DFA2148A03000F0CD
:1043E00009FA1F48B43000F005FA1D48C83000F043
:1043F00001FA1B48DC3000F0FDF919488C3060638D
:104400001430A06305E02068E96AC06A884200D8D9
:104410002560606A401C6062E96A01202269884068
:104420001043206101EB810007EB8000291D00F0A3
:1044300007FA00F079FA606900280CD02068E96A70
:10444000C06A884207D207494FF080500860BFF326
:104450004F8FBFF36F8FBDE8F0810000E4000020B4
:104460009006002004ED00E010B5044690F85100DD
:1044700058B101280CD002280FD0502080F31188A9
:10448000BFF34F8FBFF36F8FFEE7206B00F060FA32
:104490002046BDE8104000F05BBA10BD10484FF454
:1044A0004061420706D0C01D0D4920F00700411AA7
:1044B000C1F540610B4A00230144C2E900030839F9
:1044C000183A21F0070111604B600B600B1AC0E92C
:1044D000001393604FF0004053605061704700003C
:1044E0008007002038010020144E154CA6F1C807A3
:1044F0004FF08058DFF84C9012E000BF00F0F4F964
:10450000F068C568281D00F057F9A068401EA0603B
:104510006068401E606000F007FA2846FFF7A4FFBD
:1045200060680028EAD138680128F9D9C9F8008004
:10453000BFF34F8FBFF36F8FF2E7000058070020E3
:10454000E400002004ED00E02DE9F0479A46DDE9A3
:10455000098481466FF00303206B03EB8202104451
:10456000089E20F00707780707D0502080F31188B5
:10457000BFF34F8FBFF36F8FFEE7002561B10020BF
:1045800023180A5C83F834200A5C12B1401C1028FE
:10459000F6D384F8435001E084F83450072E00D35A
:1045A0000626E662C4E91165201D00F02EF904F12B
:1045B000180000F02AF92461C6F107006462A061C6
:1045C000E56484F8505052464946384600F0CCF82D
:1045D0002060B8F1000F01D0C8F80040BDE8F087B6
:1045E00030B5114900E011460A688242FBD34B689E
:1045F0005C18844203D14068184448600846436808
:104600001C18944209D1084C183C2468A24209D0D5
:1046100052681A4442600A6812680260814200D0FF
:10462000086030BD0460F9E7380100200648416B9E
:10463000096829B1416BC968C968496881627047D6
:104640004FF0FF31FAE70000E4000020084840681E
:10465000401C4FF0500080F3118804D0BFF34F8FFF
:10466000BFF36F8FFEE7BFF34F8FBFF36F8FFEE790
:1046700040010020002804D0012803D0072803D0DF
:104680000420704702207047062070472DE9F04152
:104690000546002700F0FCF9324E306808B9FFF7F4
:1046A000FDFE706905424ED1C5B3083568070ED0CE
:1046B00005F00700C0F108000544680707D0502046
:1046C00080F31188BFF34F8FBFF36F8FFEE72DB3D9
:1046D0007068854237D82348183001460C6801E0DD
:1046E00020460C466168A94202D221680029F7D110
:1046F00031688C4227D007682168016060680837FC
:10470000411B10290FD96019420708D0502080F3AF
:104710001188BFF34F8FBFF36F8FFEE713E0416047
:104720006560FFF75DFF61687068401A7060B2688D
:10473000904200D2B060706901430020C4E90001DA
:10474000F068401CF06000F0FBFB780707D05020B9
:1047500080F31188BFF34F8FBFF36F8FFEE73846AA
:10476000BDE8F0812001002010B5031F4FF08074D8
:104770001C601B1F21F001011960191F024B0B6007
:10478000143940380A6010BD4D46000870B5094D17
:10479000FF231A4605F5807606E000BF10F8014BAE
:1047A00054402A5D5A40335D491E89B2F6D242EA2E
:1047B000032070BD38580008D0E9013201699A60C1
:1047C000D0E901235A604A68824201D182684A6076
:1047D000002202610868401E0860086870470000F7
:1047E000034B036003F154000860802010607047A1
:1047F0005001002000F108014FF0FF32C0E9011222
:10480000C1600161002101607047002101617047B2
:1048100030B50B685A1C02D000F1080202E00269B0
:1048200004E02246546825689D42FAD953684B60DB
:1048300099608A60516008610168491C016030BD5F
:1048400042684A6093688B60936859609160086120
:104850000168491C0160704770B5124E124C0D463C
:1048600050B1002204213046FCF7D0FD2168C86811
:1048700040F02000C86004E02068C16821F02001F9
:10488000C1604DB1012204213046FCF7BFFD206814
:10489000C16841F0800103E02068C16821F0800117
:1048A000C16070BD000C0140B804002007480068DA
:1048B000016A41F21112114207D1016A92101142AC
:1048C00003D1016821F00101016070472804002034
:1048D00004480021026851620068016841F001014A
:1048E0000160704728040020502080F31188BFF336
:1048F0004F8FBFF36F8F0A494868401C48600128FA
:104900000CD10848006810F0FF0F07D0502080F34A
:104910001188BFF34F8FBFF36F8FFEE77047000022
:104920004001002004ED00E00849486828B1401E1D
:10493000486001D180F311887047502080F31188BE
:10494000BFF34F8FBFF36F8FFEE7000040010020E1
:1049500070B500282AD0164DA0F108046068696976
:10496000084207D1502080F31188BFF34F8FBFF367
:104970006F8FFEE722683AB1502080F31188BFF3B1
:104980004F8FBFF36F8FFEE78843606000F080F8C1
:1049900060686968084468602046FFF721FE28695E
:1049A000401C2861BDE8704000F0CABA70BD00002C
:1049B000200100204FF0E0200021016181610549C4
:1049C0004FF47A720968B1FBF2F1491E4161072187
:1049D00001617047E000002010B5020014D00F48BC
:1049E000006B38B1502080F31188BFF34F8FBFF3B5
:1049F0006F8FFEE700F04CF800211046FFF794FCA3
:104A000000F09EFA002807D105494FF08050086059
:104A1000BFF34F8FBFF36F8F10BD0000E400002085
:104A200004ED00E010B586B00024039405AA04A9A3
:104A300003A80494FFF7D4FEDDE903010094CDE957
:104A4000011000230EA11048059A00F0E8F90F4963
:104A50000028C86211D0502080F31188BFF34F8F17
:104A6000BFF36F8F4FF0FF30886201204861CC6048
:104A700006B0BDE8104000F051B906B010BD00000E
:104A800049444C4500000000E9440008E4000020CF
:104A90000248016B491C016370470000E4000020DC
:104AA0001448016B11B10121C16170470021C1613E
:104AB0000169B1FA81F1C1F11F0101EB81020E49D7
:104AC00051F822306BB101EB820101F108034A6811
:104AD00052684A609A4201D152684A60D1680160C6
:104AE0007047502080F31188BFF34F8FBFF36F8F53
:104AF000FEE70000E4000020900600200549024681
:104B000000204B78002B04D00878107000204870EB
:104B100001207047D0000020024900204870012089
:104B200070470000D0000020024901224A7008703E
:104B300010467047D000002002490968017001202A
:104B40007047000004440040124810B5104AC0E904
:104B5000002100210C22C160C0E905214FF48052E0
:104B6000C161012B09D0022B0AD001618160094883
:104B7000FDF7BDFE48B1002010BD4FF4C06101E05B
:104B80004FF4806182600161F1E7012010BD0000F7
:104B900000440040B804002001490860012070472B
:104BA0000444004030B587B000251A4C00950195AB
:104BB00002950395049516490595216040F60F610D
:104BC000401E6160C4E9025025612046A561FDF7E1
:104BD000EDFC70B94FF48050009069462046FDF717
:104BE0005DFD30B9049504A920460595FDF7AAFCA2
:104BF00010B1002007B030BD21686FF001000861DE
:104C00002068C16841F00101C1600120F2E70000A5
:104C1000000400402804002038B5174C00252078F7
:104C200008B1AFF300806846FFF786FF607830B1C7
:104C3000124A012807D0022810D0032801D1FFF71B
:104C400047FE284638BD0020A0809DF80000A188BE
:104C50000A44491CA180107002200BE0A088FF28A4
:104C600007D89DF80010A0880244401CA080117055
:104C7000E5E703206070E2E7C4000020680500203B
:104C800070B50E4D0024687870B102280BD003284F
:104C90000DD0687858B16878022808D06878032861
:104CA00005D0AFF300800120FFF73EFF0446FFF779
:104CB000FDFD01206870204670BD0000C40000208A
:104CC00070B5154C00256078012801D0AFF3008045
:104CD000207810B101281CD104E000210120FFF749
:104CE000BBFD16E0608850B1A0680078FFF754FF64
:104CF000A068401CA0606088401E608009E003201E
:104D0000FFF712FF054600210120FFF7A5FD002057
:104D10002070284670BD0000C40000201CB5264944
:104D200008780190FF20087008788DF800009DF841
:104D300000009DF8002000F0F000904207D05020C5
:104D400080F31188BFF34F8FBFF36F8FFEE79DF89D
:104D500000001A4C00F0500020700720A06005E011
:104D60009DF8002052008DF80020401E9DF8002084
:104D70001206F5D4A060032807D0502080F31188D4
:104D8000BFF34F8FBFF36F8FFEE74FF44070A0600B
:104D9000019808700A48016841F4700101600168D7
:104DA00041F070410160FFF705FE00206060FBF7F5
:104DB000B9F900201CBD000000E400E04001002023
:104DC00020ED00E02DE9FF5F8346DDE90E8799467F
:104DD00016468A469000FFF759FC05001CD0542067
:104DE000FFF754FC040014D00020256384F8510020
:104DF000CDE90240CDE900874B4632465146584640
:104E0000FFF7A2FB2046FFF7C7FA012004B0BDE878
:104E1000F09F2846FFF79CFD4FF0FF30F6E7F0B516
:104E200085B0DDE90B640A9DA6B1DCB1542700977B
:104E30002663022684F85160002604AFCDE90246BD
:104E4000CDE90057FFF780FB2046FFF7A5FA04984D
:104E500005B0F0BD502080F31188BFF34F8FBFF332
:104E60006F8FFEE7502080F31188BFF34F8FBFF3A1
:104E70006F8FFEE72DE9F0412F4C0026206B28B103
:104E8000A069401CA0613046BDE8F081E5686D1C5A
:104E9000E56013D1606B006838B1502080F3118851
:104EA000BFF34F8FBFF36F8FFEE7606BA16B616342
:104EB000A063206A401C2062FFF7B8FBA06ADFF8FD
:104EC0007C80854209D3606B0068A0B1606BC068CC
:104ED000C7687868854211D2A0622068C06A00EB7A
:104EE000800158F82100012800D90126E069002836
:104EF000C9D00126C7E74FF0FF30EDE7381DFFF7B7
:104F00005BFCB86A18B107F11800FFF755FCF96AA5
:104F10000120226988401043206101EB810108EBE8
:104F20008100391DFFF78CFCF86A2168C96A884244
:104F3000C9D30126C7E70000E40000209006002046
:104F40002DE9F0472C4D00242746286B38B1FFF798
:104F5000CBFC286B401E2863286B40B146E05020F4
:104F600080F31188BFF34F8FBFF36F8FFEE7A968FF
:104F7000224E0120D1B3A6F1B40980463068E8B1D1
:104F8000F068C46804F11800FFF716FC201DFFF755
:104F900013FCE06A2A6908FA00F11143296100EB69
:104FA000800109EB8100211DFFF74AFCE06A2968B6
:104FB000C96A8842E2D3C5F81C80DFE70CB1FFF76D
:104FC00035FBAC6944B14646FFF754FF00B1EE61D2
:104FD000641EF9D10020A861E86938B108490127A9
:104FE00038070860BFF34F8FBFF36F8FFFF79CFC4C
:104FF0003846BDE8F0870000E400002044070020A8
:1050000004ED00E00000000000000000002F0000A0
:1050100000000700070000147F147F1400242A7F7B
:105020002A120062640813230036495522500000FA
:105030000503000000001C224100000041221C006A
:105040000014083E08140008083E0808000000A0EC
:1050500060000008080808080000606000000020E8
:1050600010080402003E5149453E0000427F4000C6
:10507000004261514946002141454B31001814124C
:105080007F10002745454539003C4A494930000119
:105090007109050300364949493600064949291E68
:1050A00000003636000000005636000000081422CA
:1050B00041000014141414140000412214080002CA
:1050C0000151090600324959513E007C1211127CEF
:1050D000007F49494936003E41414122007F41411C
:1050E000221C007F49494941007F09090901003E0E
:1050F0004149497A007F0808087F0000417F41004C
:10510000002040413F01007F08142241007F4040C1
:105110004040007F020C027F007F0408107F003EA9
:105120004141413E007F09090906003E4151215E8F
:10513000007F091929460046494949310001017F8C
:105140000101003F4040403F001F2040201F003F22
:105150004038403F006314081463000708700807D4
:1051600000615149454300007F41410000552A55E7
:105170002A55000041417F00000402010204004062
:105180004040404000000102040000205454547884
:10519000007F4844443800384444442000384444A4
:1051A000487F00385454541800087E090102001842
:1051B000A4A4A47C007F080404780000447D40007F
:1051C000004080847D00007F102844000000417F63
:1051D0004000007C04180478007C0804047800383F
:1051E0004444443800FC242424180018242418FCC7
:1051F000007C0804040800485454542000043F4430
:105200004020003C4040207C001C2040201C003CF2
:105210004030403C004428102844001CA0A0A07C42
:10522000004464544C44141414141414000000007A
:10523000000000000000000000000000000000F876
:1052400000000000000000333000000000100C06D9
:10525000100C0600000000000000000040C0784074
:10526000C0784000043F04043F040400007088FC40
:1052700008300000001820FF211E0000F008F00098
:10528000E018000000211C031E211E0000F0088809
:10529000700000001E2123241927211010160E0073
:1052A000000000000000000000000000000000E01E
:1052B0001804020000000007182040000002041833
:1052C000E00000000040201807000000404080F08F
:1052D000804040000202010F01020200000000F0C5
:1052E000000000000101011F010101000000000099
:1052F0000000000080B0700000000000000000000E
:105300000000000000010101010101010000000096
:10531000000000000030300000000000000000002D
:1053200080601804006018060100000000E010080A
:105330000810E000000F102020100F00001010F8DF
:10534000000000000020203F20200000007008081E
:10535000088870000030282422213000003008889E
:10536000884830000018202020110E000000C020C6
:1053700010F8000000070424243F240000F80888E7
:10538000880808000019212020110E0000E0108874
:1053900088180000000F112020110E0000380808A6
:1053A000C83808000000003F0000000000708808B6
:1053B00008887000001C222121221C0000E0100837
:1053C0000810E0000000312222110F00000000C090
:1053D000C00000000000003030000000000000802D
:1053E000000000000000806000000000000080401D
:1053F0002010080000010204081020004040404036
:105400004040400004040404040404000008102088
:1054100040800000002010080402010000704808CD
:105420000808F0000000003036010000C030C82835
:10543000E810E0000718272423140B000000C038F0
:10544000E0000000203C23020227382008F888886A
:1054500088700000203F202020110E00C030080876
:1054600008083800071820202010080008F808084D
:105470000810E000203F202020100F0008F8888846
:10548000E8081000203F20202320180008F8888812
:10549000E8081000203F200003000000C03008088A
:1054A0000838000007182020221E020008F8080013
:1054B0000008F808203F210101213F20000808F8DA
:1054C000080800000020203F2020000000000808FD
:1054D000F8080800C08080807F00000008F888C0BD
:1054E00028180800203F20012638200008F808006E
:1054F00000000000203F20202020300008F8F800A5
:10550000F8F80800203F003F003F200008F830C0B6
:105510000008F808203F200007183F00E0100808A6
:105520000810E0000F10202020100F0008F80808D5
:105530000808F000203F210101010000E0100808E8
:105540000810E0000F18242438504F0008F888880D
:1055500088887000203F2000030C302000708808ED
:10556000080838000038202121221C00180808F8FB
:10557000080818000000203F2000000008F808007C
:105580000008F808001F202020201F00087888004D
:1055900000C83808000007380E010000F80800F8BD
:1055A0000008F800033C0700073C03000818688067
:1055B0008068180820302C03032C30200838C800DD
:1055C000C83808000000203F20000000100808082C
:1055D000C83808002038262120201800000000FECE
:1055E000020202000000007F40404000000C30C07A
:1055F00000000000000000010638C00000020202A6
:10560000FE000000004040407F0000000000040257
:105610000202040000000000000000000000000082
:105620000000000080808080808080800002020472
:10563000000000000000000000000000000080806A
:10564000808000000019242222223F2008F80080D8
:1056500080000000003F112020110E00000000809B
:1056600080800000000E112020201100000000802A
:105670008088F800000E112020103F20000080805C
:1056800080800000001F222222221300008080F070
:10569000888888180020203F20200000000080809B
:1056A00080808000006B94949493600008F80080E0
:1056B00080800000203F210000203F20008098983B
:1056C000000000000020203F20200000000000809B
:1056D0009898000000C08080807F000008F80000DB
:1056E00080808000203F24022D302000000808F830
:1056F000000000000020203F2020000080808080EB
:1057000080808000203F20003F20003F808000807C
:1057100080800000203F210000203F20000080808A
:1057200080800000001F202020201F00808000803B
:105730008000000080FFA12020110E0000000080EA
:1057400080808000000E112020A0FF8080808000DB
:105750008080800020203F21200001000000808008
:10576000808080000033242424241900008080E0FD
:10577000808000000000001F2020000080800000CA
:1057800000808000001F202020103F2080808000AB
:105790000080808000010E300806010080800080BB
:1057A000008080800F300C030C300F0000808000E0
:1057B000808080000020312E0E312000808080000B
:1057C0000080808080818E701806010000808080BB
:1057D000808080000021302C222130000000000059
:1057E000807C020200000000003F404000000000FA
:1057F000FF00000000000000FF0000000002027C2B
:10580000800000000040403F000000000006010151
:10581000020204040000000000000000745A0008A6
:105820008F3400080000000000000000800000002D
:10583000000000000000000000C1814001C0804164
:1058400001C0804100C1814001C0804100C1814050
:1058500000C1814001C0804101C0804100C1814040
:1058600000C1814001C0804100C1814001C0804130
:1058700001C0804100C1814001C0804100C1814020
:1058800000C1814001C0804100C1814001C0804110
:1058900001C0804100C1814000C1814001C0804100
:1058A00001C0804100C1814001C0804100C18140F0
:1058B00000C1814001C0804101C0804100C18140E0
:1058C00000C1814001C0804100C1814001C08041D0
:1058D00001C0804100C1814000C1814001C08041C0
:1058E00001C0804100C1814001C0804100C18140B0
:1058F00000C1814001C0804100C1814001C08041A0
:1059000001C0804100C1814001C0804100C181408F
:1059100000C1814001C0804101C0804100C181407F
:1059200000C1814001C0804100C1814001C080416F
:1059300001C0804100C1814000C0C101C30302C257
:10594000C60607C705C5C404CC0C0DCD0FCFCE0EBF
:105950000ACACB0BC90908C8D81819D91BDBDA1A2F
:105960001EDEDF1FDD1D1CDC14D4D515D71716D69F
:10597000D21213D311D1D010F03031F133F3F2320F
:1059800036F6F737F53534F43CFCFD3DFF3F3EFE7F
:10599000FA3A3BFB39F9F83828E8E929EB2B2AEAEF
:1059A000EE2E2FEF2DEDEC2CE42425E527E7E6265F
:1059B00022E2E323E12120E0A06061A163A3A262CF
:1059C00066A6A767A56564A46CACAD6DAF6F6EAE3F
:1059D000AA6A6BAB69A9A86878B8B979BB7B7ABAAF
:1059E000BE7E7FBF7DBDBC7CB47475B577B7B6761F
:1059F00072B2B373B17170B050909151935352928F
:105A000096565797559594549C5C5D9D5F9F9E5EFE
:105A10005A9A9B5B99595898884849894B8B8A4A6E
:105A20004E8E8F4F8D4D4C8C4484854587474686DE
:105A3000824243834181804001020203040506073C
:105A400008090A0B0C0D0E0F1010010202030405C9
:105A5000060708090A0B0C0D0E0F101000000000BD
:105A6000000000000102030406070809000000000E
:105A7000010203044D6F6462757300009C5A0008B4
:105A8000000000205001000080080008D05A0008E3
:105A90005001002030160000F43B000891A20102E2
:105AA0002B02321113B53E33080313B93D330810EE
:105AB000130B3F3308061AD91832171A1708016C4E
:105AC00029CB2988510361127A1AAA0181000000AA
:04000005080000ED02
:00000001FF
